:1000000065EF0EF0EA6A740EE96EEF50D8B416EFA1
:1000100000F0020E016E006A002EFED7012EFBD703
:10002000970E006E002EFED7EF2EF3D71200743815
:10003000F00B006E0F0E8C1400108C6E00008C8084
:1000400000D000D08C9012008350006E00380F0B4F
:10005000016E12000F0E9514F009956E8C8400004D
:100060008C800000F1DF01C074F08C9000008C8067
:1000700000D0EADF01C073F08C900F0E9514956EDE
:100080007438006EF00E001600507310016E4EEFC3
:1000900000F09590959295948C92DCD701C073F006
:1000A00001BEFBD78C9271B08C8200008C94000052
:1000B0008C907238736E0F0E731673C074F0B7DFC6
:1000C00072500F0B736E746EB2DF1200280E6B6EDF
:1000D0000C0E6C6E010E6D6E060E6E6E8C908C9218
:1000E0008C940F0E9514956E9590959295940F0E95
:1000F000746E88DF010E6A6E6A50030808E3030E0F
:10010000746E95DF050E746E7DDF6A2AF5D7020ED8
:10011000746E8DDF050E746E75DF6A6A6A500308AF
:100120000DE3036A6A506B0FE96E000E0320EA6E5E
:10013000EFCF72F0716AADDF6A2AF0D7BCEF0EF034
:100140006E2C01D003D0400E6F6E01D06F6A010E8D
:100150006D5C6F266F508009706E716A726E99DFE8
:1001600012006C50070A07E00B0A0AE0060A10E0CA
:10017000020A14E018D0010E6D6E6E6EE1DF18D029
:10018000716A010E726E85DF020E746E3BDF10D055
:10019000010E6D6E020E6E6ED3DF0AD0716A100E04
:1001A000726E77DF05D0010E716E6CC072F071DF78
:1001B0001200C69E9E967FC0C9FF020EC6BE05D025
:1001C000C7B4FED7000EC5BC010E016E1200C69C5E
:1001D000C586C5B6FED700B0C59A00A0C58AC58839
:1001E000C5B8FED7C9CF01F01200776AC580C5B087
:1001F000FED7EE0E7F6EDDDFF70E7F6EDADFC58293
:10020000C5B2FED7EF0E7F6ED4DF010E006EDFDFCA
:1002100001C076F0010E006EDADF01C075F0010E4C
:10022000006ED5DF01C074F077307C6E76307B6E67
:1002300075307A6E7430796E7C327B327A327932F4
:100240007C327B327A3279327C327B327A3279324A
:100250000F0E7C167B500F0B116A106E7AC00FF0D8
:1002600079C00EF0010E006EB2DF01C076F0010E13
:10027000006EADDF01C075F0010E006EA8DF01C099
:1002800074F077307C6E76307B6E75307A6E7430B9
:10029000796E7C327B327A3279327C327B327A32BE
:1002A00079327C327B327A3279320F0E7C167B5077
:1002B0000F0B0D6A0C6E7AC00BF079C00AF0766AEB
:1002C000010E006E84DF01C075F0006A80DF01C09E
:1002D00074F0C584C5B4FED7156A146A75C013F0EE
:1002E00074C012F011EF02F0D8B203D0EA6A880E9F
:1002F000E96E83518719800B8D6F83AF0BD0801F00
:10030000811F821F831F802BD8B4812BD8B4822BEE
:10031000D8B4832B87AF0BD0841F851F861F871F00
:10032000842BD8B4852BD8B4862BD8B4872B006AFD
:10033000016A026A036A886B896B8A6B8B6B8751CF
:100340008611851184112CE0200E8C6FD890803797
:10035000813782378337883789378A378B37875198
:100360008B5D08E186518A5D05E18551895D02E179
:100370008451885D0FE38451885F8551D8A0853D05
:10038000895F8651D8A0863D8A5F8751D8A0873D76
:100390008B5FD88000360136023603368C2FD6D7D5
:1003A0008DAF0BD0001E011E021E031E002AD8B402
:1003B000012AD8B4022AD8B4032A88C0EFFF89C022
:1003C000ECFF8AC0ECFF8BC0ECFF12008C6B8D6BD6
:1003D000010E8E6FDA6AD96A916B840E906FEA6AA9
:1003E000880EE96E91C0E2FF90C0E1FF8EC08FF0F1
:1003F000D890E550EE02F3508C23F4508D238F2FCC
:10040000F7D78CC0DEFF8DC08CF08D6BD8B08D2BF4
:10041000902BD8B4912B8E2B8E510508E0E1120061
:10042000E4D6D8920DC083F00CC082F00BC081F0EE
:100430000AC080F0876B866B856B080E846F54DF73
:1004400003C077F002C076F001C075F000C074F010
:100450001BC079F01AC078F0876B866B1BC085F0E3
:100460001AC084F08B6B8A6B896B020E886FAEDFCB
:100470000050745E0150755A0250765A0350775AF4
:100480001CC000F01DC001F0026A036A1DAE02D05C
:100490000206030603C07BF002C07AF001C079F0C7
:1004A00000C078F077C087F076C086F075C085F020
:1004B00074C084F003C08BF002C08AF001C089F0E0
:1004C00000C088F083DF03C077F002C076F001C07F
:1004D00075F000C074F0D89203C083F002C082F0BF
:1004E00001C081F000C080F0876B866B080E856FBD
:1004F000846BFADE03C06FF002C06EF001C06DF0D5
:1005000000C06CF0D8920DC083F00CC082F00BC01C
:1005100081F00AC080F0876B866B856B100E846F4C
:10052000E3DE03C077F002C076F001C075F000C0D2
:1005300074F01AC000F01BC001F0026A036A1A507E
:10054000745E1B50755A0250765A0350775AD892EF
:100550000DC083F00CC082F00BC081F00AC080F0A7
:10056000876B866B856B100E846FBEDE03C07BF0DD
:1005700002C07AF001C079F000C078F0026A036A24
:100580001A50005C006E1B500158016E02507A58E0
:10059000026E03507B58036E7B6E02C07AF001C07E
:1005A00079F000C078F077C087F076C086F075C02B
:1005B00085F074C084F08B6F02C08AF001C089F0AE
:1005C00000C088F003DF03C077F002C076F001C0FE
:1005D00075F000C074F0D89203C083F002C082F0BE
:1005E00001C081F000C080F0876B866B100E856FB4
:1005F000846B7ADE03C077F002C076F001C075F03C
:1006000000C074F01EC000F01FC001F0026A036A4F
:100610001FAE02D00206030603C07BF002C07AF0D0
:1006200001C079F000C078F077C087F076C086F01E
:1006300075C085F074C084F003C08BF002C08AF0EE
:1006400001C089F000C088F0C1DE03C077F002C0AD
:1006500076F001C075F000C074F0D89203C083F04A
:1006600002C082F001C081F000C080F0876B866B11
:10067000400E856F846B38DE03C073F002C072F0E9
:1006800001C071F000C070F070506C24166E715093
:100690006D20176E72506E20186E73506F20196E99
:1006A0006BC003F06AC0E9FF6BC0EAFFEACF77F0E6
:1006B000E9CF76F019C087F018C086F017C085F032
:1006C00016C084F08B6B8A6B896B050E886F7EDE9B
:1006D00077C0EAFF76C0E9FF03C07BF002C07AF082
:1006E00001C079F000C078F0800E7826000E7922E3
:1006F0007A227B22EACF7DF0E9CF7CF0D8927BC0D2
:1007000083F07AC082F079C081F078C080F0876B86
:10071000866B010E856F846BE7DD7DC0EAFF7CC0D0
:10072000E9FF00C0EFFF01C0ECFF02C0ECFF03C017
:10073000ECFF010E016EC5EF0EF0000E165C6C6E44
:100740002C0E17586D6E010E18586E6E000E19584B
:100750006F6E15C087F014C086F013C085F012C00C
:1007600084F08B6B8A6B400E896F886B2FDE03C021
:1007700077F002C076F001C075F000C074F07B6ABB
:100780007A6A37C079F036C078F037AE02D07A0690
:100790007B067BC087F07AC086F079C085F078C090
:1007A00084F08B6B100E8A6F896B886B0FDE0050A4
:1007B000745E0150755A0250765A0350775A7B6A1C
:1007C0007A6A39C079F038C078F039AE02D07A064A
:1007D0007B067BC087F07AC086F079C085F078C050
:1007E00084F06FC08BF06EC08AF06DC089F06CC071
:1007F00088F0ECDD0050745E0150755A0250765A54
:100800000350775A400E7526000E76227722D89232
:1008100077C083F076C082F075C081F074C080F03C
:10082000876B866B800E856F846B5EDD03C077F00F
:1008300002C076F001C075F000C074F03AC000F05C
:10084000016A026A036A3AAE03D001060206030691
:1008500003C07BF002C07AF001C079F000C078F0EC
:100860006FC087F06EC086F06DC085F06CC084F0FC
:1008700003C08BF002C08AF001C089F000C088F08C
:10088000A5DD03C07BF002C07AF001C079F000C0A2
:1008900078F0D89203C083F002C082F001C081F0EA
:1008A00000C080F0876B866B040E856F846B1CDD47
:1008B00003C07BF002C07AF001C079F000C078F08C
:1008C00035C000F07F6A7E6A7D6A6FC087F06EC0B7
:1008D00086F06DC085F06CC084F08B6B8A6B896B81
:1008E00035C088F073DD03C07FF002C07EF001C028
:1008F0007DF000C07CF0D89203C083F002C082F08B
:1009000001C081F000C080F0876B866B080E856F98
:10091000846BEADC03C07FF002C07EF001C07DF092
:1009200000C07CF000C000F0800E0124016E000EBB
:100930000220026E000E0320036E7F6E02C07EF066
:1009400001C07DF000C07CF07BC087F07AC086F0EB
:1009500079C085F078C084F08B6F02C08AF001C046
:1009600089F000C088F032DD03C07BF002C07AF06D
:1009700001C079F000C078F0D89203C083F002C0C3
:1009800082F001C081F000C080F0876B866B040E9E
:10099000856F846BA9DC03C07BF002C07AF001C0D4
:1009A00079F000C078F0200E7A26000E7B2233C04A
:1009B00000F034C001F0026A036A34AE02D00206CD
:1009C000030603C07FF002C07EF001C07DF000C0CE
:1009D0007CF07BC087F07AC086F079C085F078C063
:1009E00084F003C08BF002C08AF001C089F000C01F
:1009F00088F0ECDC03C07BF002C07AF001C079F033
:100A000000C078F0200E7926000E7A227B22D89240
:100A10007BC083F07AC082F079C081F000C080F0A2
:100A2000876B866B400E856F846B5EDC03C07BF04A
:100A300002C07AF001C079F000C078F077C087F08A
:100A400076C086F075C085F074C084F003C08BF06A
:100A500002C08AF001C089F000C088F0B7DC03C092
:100A60006FF002C06EF001C06DF000C06CF0D89263
:100A70006FC083F06EC082F06DC081F06CC080F0FA
:100A8000876B866B800E856F846B2EDC03C077F0DE
:100A900002C076F001C075F000C074F0D8926FC04B
:100AA00083F06EC082F06DC081F06CC080F0876B07
:100AB000866B800E856F846B17DC03C07BF002C0F1
:100AC0007AF001C079F000C078F077C087F076C086
:100AD00086F075C085F074C084F003C08BF002C04E
:100AE0008AF001C089F000C088F070DC03C077F0A4
:100AF00002C076F001C075F000C074F0D89203C057
:100B000083F002C082F001C081F000C080F0876BEA
:100B1000866B856B800E846F74EC01F003C087F0E8
:100B200002C086F001C085F000C084F032C000F041
:100B30007B6A7A6A796A8B6B8A6B896B32C088F0C0
:100B400045DC03C077F002C076F001C075F000C04C
:100B500074F0D89203C083F002C082F001C081F02B
:100B600000C080F0876B866B856B100E846F74EC11
:100B700001F000506C5E01506D5A02506E5A0350E5
:100B80006F5A6FAE05D0006A016A026A036A08D024
:100B90006CC000F06DC001F06EC002F06FC003F0D9
:100BA00003C06FF002C06EF001C06DF000C06CF0C9
:100BB0006FBE12D06F5018080FE2FF0A07E16E52A5
:100BC00005E16D5203E16C50000806E2006A016A1B
:100BD000026A190E036E08D06CC000F06DC001F0FF
:100BE0006EC002F06FC003F003C06FF002C06EF081
:100BF00001C06DF000C06CF0D8926FC083F06EC081
:100C000082F06DC081F06CC080F0876B866B100E37
:100C1000856F846B74EC01F003C073F002C072F056
:100C200001C071F000C070F06AC0E9FF6BC0EAFF5C
:100C300070C0EFFF71C0ECFF72C0ECFF73C0ECFF3F
:100C4000010E016ECAEF0EF0D8B203D0EA6A840E2C
:100C5000E96E006A016A026A036A846B856B866BBF
:100C6000876B83518211811180112CE0200E886FD7
:100C7000D8907C367D367E367F368437853786370A
:100C800087378351875D08E18251865D05E1815197
:100C9000855D02E18051845D0FE38051845F815165
:100CA000D8A0813D855F8251D8A0823D865F835167
:100CB000D8A0833D875FD8800036013602360336E0
:100CC000882FD6D784C0EFFF85C0ECFF86C0ECFF2D
:100CD00087C0ECFF1200D89219C083F018C082F0D0
:100CE00017C081F016C080F0876B866B856B020E93
:100CF000846F74EC01F0000E005C6C6EFA0E01580B
:100D00006D6E000E02586E6E000E03586F6ED89214
:100D10006FC083F06EC082F06DC081F06CC080F057
:100D2000876B866B856B040E846F74EC01F003C0D7
:100D30007BF002C07AF001C079F000C078F0D89260
:100D40006FC083F06EC082F06DC081F06CC080F027
:100D5000876B866B856B040E846F74EC01F003C0A7
:100D60007FF002C07EF001C07DF000C07CF07BC04F
:100D700087F07AC086F079C085F078C084F003C02F
:100D80008BF002C08AF001C089F000C088F0E6EC68
:100D900001F003C07BF002C07AF001C079F000C01E
:100DA00078F0D89203C083F002C082F001C081F0D5
:100DB00000C080F0876B866B080E856F846B74ECC7
:100DC00001F003C07BF002C07AF001C079F000C0EE
:100DD00078F02AC000F02BC001F0026A036A2BAE43
:100DE00002D00206030603C07FF002C07EF001C0FD
:100DF0007DF000C07CF07BC087F07AC086F079C0BF
:100E000085F078C084F003C08BF002C08AF001C086
:100E100089F000C088F0E6EC01F003C073F002C076
:100E200072F001C071F000C070F028C000F029C05D
:100E300001F0026A036A29AE02D00206030603C06B
:100E40007BF002C07AF001C079F000C078F06FC08A
:100E500087F06EC086F06DC085F06CC084F003C072
:100E60008BF002C08AF001C089F000C088F0E6EC87
:100E700001F003C07BF002C07AF001C079F000C03D
:100E800078F003C087F002C086F001C085F000C092
:100E900084F08B6B8A6B896B020E886FE6EC01F035
:100EA00000507026015071220250722203507322AA
:100EB000D89273C083F072C082F071C081F070C0AC
:100EC00080F0876B866B856B040E846F74EC01F089
:100ED00003C07BF002C07AF001C079F000C078F066
:100EE0007F6A7E6A27C07DF026C07CF027AE02D0E4
:100EF0007E067F067FC087F07EC086F07DC085F0CD
:100F00007CC084F08B6B010E8A6F896B886BE6EC7A
:100F100001F000507824706E01507920716E0250FB
:100F20007A20726E03507B20736E7B6A7A6A25C0CA
:100F300079F024C078F025AE02D07A067B06D892EC
:100F40006FC083F06EC082F06DC081F06CC080F025
:100F5000876B866B856B040E846F74EC01F003C0A5
:100F60007FF002C07EF001C07DF000C07CF0D8921E
:100F70006FC083F06EC082F06DC081F06CC080F0F5
:100F8000876B866B856B040E846F74EC01F003C075
:100F900083F002C082F001C081F000C080F07FC009
:100FA00087F07EC086F07DC085F07CC084F003C0F1
:100FB0008BF002C08AF001C089F000C088F0E6EC36
:100FC00001F003C07FF002C07EF001C07DF000C0E0
:100FD0007CF0D89203C083F002C082F001C081F09F
:100FE00000C080F0876B866B200E856F846B74EC7D
:100FF00001F003C07FF002C07EF001C07DF000C0B0
:101000007CF07BC087F07AC086F079C085F078C02C
:1010100084F003C08BF002C08AF001C089F000C0E8
:1010200088F0E6EC01F003C07BF002C07AF001C06A
:1010300079F000C078F0D89203C083F002C082F04B
:1010400001C081F000C080F0876B866B856B080E55
:10105000846F74EC01F003C07BF002C07AF001C031
:1010600079F000C078F07F6A7E6A23C07DF022C0EC
:101070007CF023AE02D07E067F067FC087F07EC064
:1010800086F07DC085F07CC084F06FC08BF06EC0B0
:101090008AF06DC089F06CC088F0E6EC01F003C006
:1010A0007FF002C07EF001C07DF000C07CF0D892DD
:1010B00003C083F002C082F001C081F000C080F064
:1010C000876B866B856B020E846F74EC01F00050A9
:1010D00078260150792202507A2203507B22D8923E
:1010E0007BC083F07AC082F079C081F078C080F054
:1010F000876B040E866F856B846B74EC01F003C004
:101100006FF002C06EF001C06DF000C06CF0800E98
:101110006D24796E000E6E207A6E000E6F207B6E4D
:1011200020C000F021C001F07F6A7E6A876F7AC01C
:1011300086F079C085F06CC084F08B6B8A6B21C01F
:1011400089F020C088F0E6EC01F003C07BF002C01B
:101150007AF001C079F000C078F0D89203C083F033
:1011600002C082F001C081F000C080F0876B866B06
:10117000800E856F846B74EC01F003C06FF002C0C9
:101180006EF001C06DF000C06CF06C5209E16D5260
:1011900007E16E5205E16F5203E1000E016EC0D10E
:1011A000000ED8800E54006E000E0F54016E100E0B
:1011B0001054026E000E1154036E7B6E02C07AF062
:1011C00001C079F000C078F0D89273C083F072C08B
:1011D00082F071C081F070C080F0876B866B100E5A
:1011E000856F846B74EC01F00050785E0150795A81
:1011F00002507A5A03507B5A7BC087F07AC086F03F
:1012000079C085F078C084F08B6B8A6B0C0E896F87
:10121000350E886FE6EC01F003C077F002C076F07F
:1012200001C075F000C074F077507F0823E3D890B8
:101230007434786E7534796E76347A6E77347B6E6A
:10124000D8927F6E7AC07EF079C07DF078C07CF055
:101250006FC083F06EC082F06DC081F06CC080F012
:10126000F3DC03C077F002C076F001C075F000C077
:1012700074F01BD0D89277C07FF076C07EF075C036
:101280007DF074C07CF06FC083F06EC082F06DC0E2
:1012900081F06CC080F0D8DCD8900034746E0134DA
:1012A000756E0234766E0334776E7B6A7A6A31C06B
:1012B00079F030C078F031AE02D07A067B06773014
:1012C0007F6E76307E6E75307D6E74307C6E7F32D0
:1012D0007E327D327C327F327E327D327C321F0E16
:1012E0007F167730036E7630026E7530016E743083
:1012F000006E033202320132003203320232013216
:1013000000321F0E031603C083F002C082F001C03A
:1013100081F000C080F07FC087F07EC086F07DC085
:1013200085F07CC084F003C08BF002C08AF001C05D
:1013300089F000C088F0E6EC01F003C07FF002C045
:101340007EF001C07DF000C07CF00330026E7E3084
:10135000016E7D30006E0232013200320232013203
:101360000032023201320032023201320032070E04
:1013700002167BC087F07AC086F079C085F078C00D
:1013800084F08B6B02C08AF001C089F000C088F045
:10139000E6EC01F003C07BF002C07AF001C079F006
:1013A00000C078F0D89203C083F002C082F001C080
:1013B00081F000C080F0876B866B100E856F846BA8
:1013C00074EC01F003C06FF002C06EF001C06DF06C
:1013D00000C06CF07730036E7630026E7530016EAF
:1013E0007430006E03320232013200323F0E0316B7
:1013F00003C07BF002C07AF001C079F000C078F041
:101400002EC000F02FC001F0026A036A2FAE02D096
:101410000206030603C07FF002C07EF001C07DF02B
:1014200000C07CF07BC087F07AC086F079C085F080
:1014300078C084F003C08BF002C08AF001C089F04C
:1014400000C088F0E6EC01F003C07BF002C07AF047
:1014500001C079F000C078F0D89203C083F002C0D8
:1014600082F001C081F000C080F0876B866B200E97
:10147000856F846B74EC01F003C073F002C072F0EE
:1014800001C071F000C070F070506C24786E715023
:101490006D20796E72506E207A6E73506F207B6E65
:1014A0002CC000F02DC001F0026A036A2DAE02D0FC
:1014B00002060306005078260150792202507A2253
:1014C00003507B22D8927BC083F07AC082F079C02F
:1014D00081F078C080F0876B866B856B100E846F0F
:1014E00074EC01F0745000267550012276500222EF
:1014F0007750032203C077F002C076F001C075F088
:1015000000C074F06AC0E9FF6BC0EAFF74C0EFFF6F
:1015100075C0ECFF76C0ECFF77C0ECFF010E016EEA
:10152000CFEF0EF0C580C5B0FED7EE0E7F6ED9ECC2
:1015300000F076C07FF0D9EC00F0C582C5B2FED7CE
:10154000EF0E7F6ED9EC00F0006AE7EC00F001C00E
:1015500077F0C584C5B4FED777C001F01200C5800E
:10156000C5B0FED7EE0E7F6ED9EC00F07DC07FF0E7
:10157000D9EC00F07EC07FF0D9EC00F0C584C5B492
:10158000FED71200C580C5B0FED7EE0E7F6ED9EC37
:1015900000F074C07FF0D9EC00F0C582C5B2FED770
:1015A000EF0E7F6ED9EC00F0010E006EE7EC00F05C
:1015B00001C075F0006AE7EC00F001C076F0C58468
:1015C000C5B4FED775C001F076C002F0120076C037
:1015D0007AF079387D6E7D36E00E7D167834006EB7
:1015E0000036FC0E001600507D10FC0B7C6E75382A
:1015F0007D6E7D36E00E7D167734006E0036FC0E73
:10160000001600507D1074107B6EF20E7D6E7AC055
:101610007EF0A5DFF50E7D6E7CC07EF0A0DFF40EBF
:101620007D6E7BC07EF09BDFF4EF0BF0D00E766E0C
:1016300079DF0150600803E0000E016ED7D0E00EA4
:101640007D6EB60E7E6E8BDF640E746E02EC00F063
:10165000F30E766E67DF0150010B010805E1640EA1
:10166000746E02EC00F0F4D7880E746E8BDF02C04B
:101670001BF001C01AF08A0E746E84DF02C01DF0E8
:1016800001C01CF08C0E746E7DDF02C01FF001C023
:101690001EF08E0E746E76DF02C021F001C020F0C5
:1016A000900E746E6FDF02C023F001C022F0920E24
:1016B000746E68DF02C025F001C024F0940E746ED1
:1016C00061DF02C027F001C026F0960E746E5ADF6B
:1016D00002C029F001C028F0980E746E53DF02C0DA
:1016E0002BF001C02AF09A0E746E4CDF02C02DF070
:1016F00001C02CF09C0E746E45DF02C02FF001C0BB
:101700002EF09E0E746E3EDF02C031F001C030F04C
:10171000A10E766E07DF01C032F0E10E746E32DF8B
:1017200002C034F001C033F0E30E766EFBDE01C080
:1017300035F0E40E766EF6DE756A01C074F074362C
:101740007536743675367436753674367536F00EF1
:101750007416E50E766EE6DE01500F0B7410366ED1
:1017600075C037F0000B006E3750080B036E005049
:10177000031002E0F00E3712E60E766ED3DE756AC5
:1017800001C074F074367536743675367436753635
:1017900074367536F00E7416E50E766EC3DE0138BB
:1017A000006E0F0E001600507410386E75C039F0C0
:1017B000000B006E3950080B036E0050031002E05E
:1017C000F00E3912E70E766EADDE01C03AF06EC053
:1017D00074F06FC075F070C076F071C077F072C0B1
:1017E00078F073C079F0F3D6010E016E2EEF0DF094
:1017F000C95087C0C9FFC730FEE3120095928C9292
:1018000095908C9085C087F0F3DF95928C821200C2
:1018100095928C9295908C8086C087F0E9DF9592A6
:101820008C8212002A0E856FE9DF866BF1DF07508C
:101830008125856F866FECDF866BEADF0750832595
:10184000856F866FE5DF2B0E856FD8DF866BE0DF57
:1018500008508225856F866FDBDF866BD9DF0850E5
:101860008425856F866FD4DF2C0E856FC7DF12004D
:1018700070507F0803E371509F0801E23ED0725020
:101880007024FF0F7F0804E2800ED8807054726EBF
:1018900073507124FF0F9F0804E2A00ED88071548A
:1018A000736E72507024FF0F786E73507124FF0FA7
:1018B000796E70C081F071C082F078C083F0846F5F
:1018C000B1DF75C076F074C077F095908C809592FA
:1018D0008C9273C071F071520EE072C070F0705251
:1018E00008E076C087F084DF77C087F081DF70067C
:1018F000F6D77106F0D795928C828AEF0CF0706A59
:10190000716A800E726EA00E736E6FC075F06EC03D
:1019100074F0AED734EF0DF079507F0803E37A50BE
:101920009F0801E22AD07B507A24FF0F9F0804E22F
:10193000A00ED8807A547B6E7DC07EF07CC07FF094
:101940007B507A24FF0F806F79C081F07AC082F0DB
:1019500079C083F0846F66DF95908C8095928C922D
:101960007B507B06000A07E07EC087F041DF7FC026
:1019700087F03EDFF5D795928C82120079507F0870
:1019800003E37A509F0801E22AD07B507924FF0FAD
:101990007F0804E2800ED88079547B6E7DC07EF093
:1019A0007CC07FF07B507924FF0F806F79C081F07D
:1019B0007AC082F0836F7AC084F034DF95908C8097
:1019C00095928C927B507B06000A07E07EC087F0E0
:1019D0000FDF7FC087F00CDFF5D795928C820AEF7E
:1019E0000DF072C079F073C07AF074C07BF077C0EC
:1019F0007DF076C07CF090DF75507324FF0F786E19
:101A000072C079F07A6E74C07BF077C07DF076C0DA
:101A10007CF0B4D772C079F073C07AF075C07BF0F7
:101A200077C07DF076C07CF077DF74507224FF0FB2
:101A3000786E796E73C07AF075C07BF077C07DF0F8
:101A400076C07CF069DF5EEF0DF0030E6E6E010E66
:101A50006F6E706E716E726A736AE8D5015201E141
:101A6000FFD76F6A6E6A4BD76D6A6C6A6D522BE155
:101A70006C507F0828E3D8906D30036E6C30026E96
:101A8000FF0A410F6E6E000E03546F6ED8906D30DA
:101A9000036E6C30026EFF0A510F706E000E03541D
:101AA000716E6EC072F070C073F06CC074F06CC078
:101AB00075F06BC077F06AC076F093D7060E6C268F
:101AC000000E6D22D3D7D4EF0EF08E0E006E6DC0D7
:101AD00001F06CC002F0036A015209E102C001F09A
:101AE000026A080E005E015202E1006A08D0D89036
:101AF00001BE04D0023601360006F9D7019EECEF94
:101B00000EF06C50D8B471D0006E7050D8B46DD057
:101B1000002604E3810E002668E204D07F0E005EFA
:101B200064E363E06DC074F07150741A6D8E718E51
:101B30006F507302F4CF76F06E507202F4CF03F060
:101B4000F3CF75F07302F3507626F4507522000E31
:101B500003226F507202F3507626F4507522000E65
:101B6000026A032202226D507302F3507526F4506C
:101B70000322000E02226D507202F3500326F4502D
:101B80000222000E016A01226F507102F350752685
:101B9000F4500322000E022201226E507102F35013
:101BA0000326F4500222000E01226D507102F35000
:101BB0000226F4500122002A01BE05D075360336F4
:101BC000023601360006000E75AE0AD0032A022244
:101BD0000122015005E1025003E1035001E1002A16
:101BE00074BE018E74AE019E04D0006A016A026A5E
:101BF000036AFDEF0EF08E0E006E6A50005E6BC041
:101C000002F06CC001F0028E005209E0D89002523E
:101C100002E1015204E002320132002EF7D76BAE2E
:101C200005D0011E021E012AD8B4022A06EF0FF0C9
:101C30006D506F18800B716E6DAE05D06C1E6D1EF1
:101C40006C2AD8B46D2A6FAE05D06E1E6F1E6E2A38
:101C5000D8B46F2A016A026A006A036A6F5002E10F
:101C60006E5018E0100E706ED8906C366D360036DF
:101C700003366F50035C02E16E50005C07E36E5068
:101C8000005ED8A003066F50035ED880013602368E
:101C9000702EEAD771AE05D0011E021E012AD8B4FB
:101CA000022A1200EF5210E0EACF6BF0E9CF6AF09F
:101CB000EFCF6CF0B1EC00F06BC0EAFF6AC0E9FF57
:101CC000E92AD8B4EA2AEED71200F86AD09E068034
:101CD000076A086A94869488040EC86E280EC66E39
:101CE000C79EC79C696A686AC180C182C184C19667
:101CF00013D002000400001D003B534943414B4CEC
:101D0000494B203D202030302E302043003D202004
:101D100030302E30204B0000000EF86E1C0EF76E97
:101D2000F20EF66E0900F550006E000A13E009008D
:101D3000F550016EE8BE05D03F0BEA6E0900F5CF05
:101D4000E9FF01BC090001AC0900F5CFEEFF004E30
:101D5000E9D7F9D7F86AC19CC28CC28EC18EC28005
:101D6000C190C182C184C186000E016EC250C70BF2
:101D70000110C26E66EF00F00C0E6C6EB1EC00F05C
:101D80006B6A5C0E6A6E10EF02F06B6A640E6A6E2C
:101D90009DEF03F06B6A600E6A6E6BEF06F0070E44
:101DA0006B6EE00E6A6E51D6040E6A6EFA0E746E99
:101DB00002EC00F06A2EFAD7C284C2B4FED7C4CFB8
:101DC00002F0C3CF01F0C4CF6BF0C3CF6AF0C4CF31
:101DD0006DF0C3CF6CF079D603C06FF002C06EF027
:101DE00001C06DF000C06CF0350E736E5E0E726E49
:101DF0007A0E716E7D0E706E84D603C06DF002C0D7
:101E00006CF001C06BF000C06AF0F5D602C059F06A
:101E100001C058F0110E585C5A6E010E59585B6E95
:101E20005BAE13D05BC003F05A505BAE08D0000E1F
:101E3000D8805A54006E000E5B54036E00505A6EE8
:101E400003C05BF02D0E426E02D0200E426E5BBED0
:101E500007D05B5203E15A50630802E2310E426E32
:101E60005BC06DF05AC06CF06F6A0A0E6E6EE0DEF9
:101E700002C06BF001C06AF002C06DF001C06CF0EE
:101E80006F6A0A0E6E6ED4DE03C06BF0300E002453
:101E9000016E000E032001C043F05BC06DF05AC01C
:101EA0006CF06F6A0A0E6E6EC3DE03C06BF0300E0C
:101EB0000024016E000E032001C044F0DF0E476EC7
:101EC00059C06DF058C06CF06F6A640E6E6EB0DE73
:101ED00002C06BF001C06AF002C06DF001C06CF08E
:101EE0006F6A0A0E6E6EA4DE03C06BF0300E002423
:101EF000016E000E032001C03DF059C06DF058C0C6
:101F00006CF06F6A0A0E6E6E93DE02C06BF001C059
:101F10006AF002C06DF001C06CF06F6A0A0E6E6E5E
:101F200087DE03C06BF0300E0024016E000E03202C
:101F300001C03EF059C06DF058C06CF06F6A0A0ED7
:101F40006E6E76DE03C06BF0300E0024016E000E64
:101F5000032001C03FF0010E6D6E6E6EA0EC00F02C
:101F6000EA6A3B0EE96E9EDE060E6D6E020E6E6E26
:101F7000A0EC00F0EA6A4E0EE96E94DE01D7030091
:020000040030CA
:0E00000000220E0E000181000FC00FE00F4025
:00000001FF
;PIC18F452
;CRC=CB44  CREATED="14-Haz-25 19:08"
